{
  "contractName": "TieredCrowdsale",
  "abi": [
    {
      "constant": true,
      "inputs": [
        {
          "name": "",
          "type": "uint256"
        }
      ],
      "name": "tiersDuration",
      "outputs": [
        {
          "name": "",
          "type": "uint256"
        }
      ],
      "payable": false,
      "stateMutability": "view",
      "type": "function"
    },
    {
      "constant": true,
      "inputs": [],
      "name": "endTime",
      "outputs": [
        {
          "name": "",
          "type": "uint256"
        }
      ],
      "payable": false,
      "stateMutability": "view",
      "type": "function"
    },
    {
      "constant": true,
      "inputs": [],
      "name": "cap",
      "outputs": [
        {
          "name": "",
          "type": "uint256"
        }
      ],
      "payable": false,
      "stateMutability": "view",
      "type": "function"
    },
    {
      "constant": true,
      "inputs": [],
      "name": "goal",
      "outputs": [
        {
          "name": "",
          "type": "uint256"
        }
      ],
      "payable": false,
      "stateMutability": "view",
      "type": "function"
    },
    {
      "constant": true,
      "inputs": [],
      "name": "weiRaised",
      "outputs": [
        {
          "name": "",
          "type": "uint256"
        }
      ],
      "payable": false,
      "stateMutability": "view",
      "type": "function"
    },
    {
      "constant": true,
      "inputs": [],
      "name": "startTime",
      "outputs": [
        {
          "name": "",
          "type": "uint256"
        }
      ],
      "payable": false,
      "stateMutability": "view",
      "type": "function"
    },
    {
      "constant": true,
      "inputs": [],
      "name": "isFinalized",
      "outputs": [
        {
          "name": "",
          "type": "bool"
        }
      ],
      "payable": false,
      "stateMutability": "view",
      "type": "function"
    },
    {
      "constant": true,
      "inputs": [],
      "name": "owner",
      "outputs": [
        {
          "name": "",
          "type": "address"
        }
      ],
      "payable": false,
      "stateMutability": "view",
      "type": "function"
    },
    {
      "constant": true,
      "inputs": [
        {
          "name": "",
          "type": "address"
        }
      ],
      "name": "whitelist",
      "outputs": [
        {
          "name": "",
          "type": "bool"
        }
      ],
      "payable": false,
      "stateMutability": "view",
      "type": "function"
    },
    {
      "constant": true,
      "inputs": [],
      "name": "WEI_TO_UNITS",
      "outputs": [
        {
          "name": "",
          "type": "uint256"
        }
      ],
      "payable": false,
      "stateMutability": "view",
      "type": "function"
    },
    {
      "constant": true,
      "inputs": [
        {
          "name": "",
          "type": "uint256"
        }
      ],
      "name": "rates",
      "outputs": [
        {
          "name": "",
          "type": "uint256"
        }
      ],
      "payable": false,
      "stateMutability": "view",
      "type": "function"
    },
    {
      "constant": true,
      "inputs": [
        {
          "name": "",
          "type": "address"
        }
      ],
      "name": "contribution",
      "outputs": [
        {
          "name": "",
          "type": "uint256"
        }
      ],
      "payable": false,
      "stateMutability": "view",
      "type": "function"
    },
    {
      "constant": false,
      "inputs": [
        {
          "name": "newOwner",
          "type": "address"
        }
      ],
      "name": "transferOwnership",
      "outputs": [],
      "payable": false,
      "stateMutability": "nonpayable",
      "type": "function"
    },
    {
      "constant": true,
      "inputs": [],
      "name": "vault",
      "outputs": [
        {
          "name": "",
          "type": "address"
        }
      ],
      "payable": false,
      "stateMutability": "view",
      "type": "function"
    },
    {
      "constant": true,
      "inputs": [],
      "name": "token",
      "outputs": [
        {
          "name": "",
          "type": "address"
        }
      ],
      "payable": false,
      "stateMutability": "view",
      "type": "function"
    },
    {
      "inputs": [
        {
          "name": "_token",
          "type": "address"
        },
        {
          "name": "_wallet",
          "type": "address"
        },
        {
          "name": "_startTime",
          "type": "uint256"
        },
        {
          "name": "_endTime",
          "type": "uint256"
        },
        {
          "name": "_rates",
          "type": "uint256[]"
        },
        {
          "name": "_tiersDuration",
          "type": "uint256[]"
        },
        {
          "name": "_cap",
          "type": "uint256"
        },
        {
          "name": "_goal",
          "type": "uint256"
        }
      ],
      "payable": false,
      "stateMutability": "nonpayable",
      "type": "constructor"
    },
    {
      "payable": true,
      "stateMutability": "payable",
      "type": "fallback"
    },
    {
      "anonymous": false,
      "inputs": [
        {
          "indexed": true,
          "name": "purchaser",
          "type": "address"
        },
        {
          "indexed": false,
          "name": "status",
          "type": "bool"
        }
      ],
      "name": "WhitelistUpdate",
      "type": "event"
    },
    {
      "anonymous": false,
      "inputs": [
        {
          "indexed": true,
          "name": "beneficiary",
          "type": "address"
        },
        {
          "indexed": false,
          "name": "value",
          "type": "uint256"
        },
        {
          "indexed": false,
          "name": "amount",
          "type": "uint256"
        }
      ],
      "name": "TokenPurchase",
      "type": "event"
    },
    {
      "anonymous": false,
      "inputs": [
        {
          "indexed": true,
          "name": "refundee",
          "type": "address"
        },
        {
          "indexed": false,
          "name": "amount",
          "type": "uint256"
        }
      ],
      "name": "TokenRefund",
      "type": "event"
    },
    {
      "anonymous": false,
      "inputs": [],
      "name": "Finalized",
      "type": "event"
    },
    {
      "anonymous": false,
      "inputs": [
        {
          "indexed": true,
          "name": "previousOwner",
          "type": "address"
        },
        {
          "indexed": true,
          "name": "newOwner",
          "type": "address"
        }
      ],
      "name": "OwnershipTransferred",
      "type": "event"
    },
    {
      "constant": false,
      "inputs": [],
      "name": "claimRefund",
      "outputs": [],
      "payable": false,
      "stateMutability": "nonpayable",
      "type": "function"
    },
    {
      "constant": false,
      "inputs": [],
      "name": "claimUnsold",
      "outputs": [],
      "payable": false,
      "stateMutability": "nonpayable",
      "type": "function"
    },
    {
      "constant": false,
      "inputs": [
        {
          "name": "addresses",
          "type": "address[]"
        },
        {
          "name": "status",
          "type": "bool"
        }
      ],
      "name": "updateWhitelist",
      "outputs": [],
      "payable": false,
      "stateMutability": "nonpayable",
      "type": "function"
    },
    {
      "constant": false,
      "inputs": [],
      "name": "finalize",
      "outputs": [],
      "payable": false,
      "stateMutability": "nonpayable",
      "type": "function"
    },
    {
      "constant": false,
      "inputs": [
        {
          "name": "index",
          "type": "uint256"
        },
        {
          "name": "_rate",
          "type": "uint256"
        }
      ],
      "name": "changeRate",
      "outputs": [],
      "payable": false,
      "stateMutability": "nonpayable",
      "type": "function"
    },
    {
      "constant": true,
      "inputs": [],
      "name": "hasEnded",
      "outputs": [
        {
          "name": "",
          "type": "bool"
        }
      ],
      "payable": false,
      "stateMutability": "view",
      "type": "function"
    },
    {
      "constant": true,
      "inputs": [],
      "name": "capReached",
      "outputs": [
        {
          "name": "",
          "type": "bool"
        }
      ],
      "payable": false,
      "stateMutability": "view",
      "type": "function"
    },
    {
      "constant": true,
      "inputs": [],
      "name": "goalReached",
      "outputs": [
        {
          "name": "",
          "type": "bool"
        }
      ],
      "payable": false,
      "stateMutability": "view",
      "type": "function"
    },
    {
      "constant": true,
      "inputs": [
        {
          "name": "contributor",
          "type": "address"
        }
      ],
      "name": "isWhitelisted",
      "outputs": [
        {
          "name": "",
          "type": "bool"
        }
      ],
      "payable": false,
      "stateMutability": "view",
      "type": "function"
    }
  ],
  "bytecode": "0x608060405260008060146101000a81548160ff0219169083151502179055503480156200002b57600080fd5b5060405162002774380380620027748339810180604052810190808051906020019092919080519060200190929190805190602001909291908051906020019092919080518201929190602001805182019291906020018051906020019092919080519060200190929190505050336000806101000a81548173ffffffffffffffffffffffffffffffffffffffff021916908373ffffffffffffffffffffffffffffffffffffffff160217905550620000f2620002a5640100000000026401000000009004565b86101515156200010157600080fd5b825184511415156200011257600080fd5b8585101515156200012257600080fd5b60008773ffffffffffffffffffffffffffffffffffffffff16141515156200014957600080fd5b6000811115156200015957600080fd5b6000821115156200016957600080fd5b8662000174620002ad565b808273ffffffffffffffffffffffffffffffffffffffff1673ffffffffffffffffffffffffffffffffffffffff168152602001915050604051809103906000f080158015620001c7573d6000803e3d6000fd5b50600a60006101000a81548173ffffffffffffffffffffffffffffffffffffffff021916908373ffffffffffffffffffffffffffffffffffffffff16021790555087600960006101000a81548173ffffffffffffffffffffffffffffffffffffffff021916908373ffffffffffffffffffffffffffffffffffffffff160217905550856006819055508460058190555083600390805190602001906200026f929190620002be565b50826004908051906020019062000288929190620002be565b508060028190555081600181905550505050505050505062000338565b600042905090565b604051610abb8062001cb983390190565b828054828255906000526020600020908101928215620002fd579160200282015b82811115620002fc578251825591602001919060010190620002df565b5b5090506200030c919062000310565b5090565b6200033591905b808211156200033157600081600090555060010162000317565b5090565b90565b61197180620003486000396000f30060806040526004361061013e576000357c0100000000000000000000000000000000000000000000000000000000900463ffffffff16806320047aa5146101495780633197cbb61461018a578063355274ea146101b55780633af32abf146101e0578063401938831461023b5780634042b66f146102665780634bb278f3146102915780634f935945146102a857806378e97925146102d75780637d3d6522146103025780638d4e4083146103315780638da5cb5b146103605780639b19251a146103b7578063a883b0c414610412578063aff177ca14610449578063b5545a3c146104bb578063d5742d85146104d2578063dad72332146104fd578063dd418ae214610514578063e2dc431014610555578063ecb70fb7146105ac578063f2fde38b146105db578063fbfa77cf1461061e578063fc0c546a14610675575b610147336106cc565b005b34801561015557600080fd5b5061017460048036038101908080359060200190929190505050610a61565b6040518082815260200191505060405180910390f35b34801561019657600080fd5b5061019f610a84565b6040518082815260200191505060405180910390f35b3480156101c157600080fd5b506101ca610a8a565b6040518082815260200191505060405180910390f35b3480156101ec57600080fd5b50610221600480360381019080803573ffffffffffffffffffffffffffffffffffffffff169060200190929190505050610a90565b604051808215151515815260200191505060405180910390f35b34801561024757600080fd5b50610250610ae6565b6040518082815260200191505060405180910390f35b34801561027257600080fd5b5061027b610aec565b6040518082815260200191505060405180910390f35b34801561029d57600080fd5b506102a6610af2565b005b3480156102b457600080fd5b506102bd610ea8565b604051808215151515815260200191505060405180910390f35b3480156102e357600080fd5b506102ec610eb7565b6040518082815260200191505060405180910390f35b34801561030e57600080fd5b50610317610ebd565b604051808215151515815260200191505060405180910390f35b34801561033d57600080fd5b50610346610ecc565b604051808215151515815260200191505060405180910390f35b34801561036c57600080fd5b50610375610edf565b604051808273ffffffffffffffffffffffffffffffffffffffff1673ffffffffffffffffffffffffffffffffffffffff16815260200191505060405180910390f35b3480156103c357600080fd5b506103f8600480360381019080803573ffffffffffffffffffffffffffffffffffffffff169060200190929190505050610f04565b604051808215151515815260200191505060405180910390f35b34801561041e57600080fd5b506104476004803603810190808035906020019092919080359060200190929190505050610f24565b005b34801561045557600080fd5b506104b960048036038101908080359060200190820180359060200190808060200260200160405190810160405280939291908181526020018383602002808284378201915050505050509192919290803515159060200190929190505050610fc9565b005b3480156104c757600080fd5b506104d061110b565b005b3480156104de57600080fd5b506104e7611262565b6040518082815260200191505060405180910390f35b34801561050957600080fd5b50610512611269565b005b34801561052057600080fd5b5061053f600480360381019080803590602001909291905050506114f0565b6040518082815260200191505060405180910390f35b34801561056157600080fd5b50610596600480360381019080803573ffffffffffffffffffffffffffffffffffffffff169060200190929190505050611513565b6040518082815260200191505060405180910390f35b3480156105b857600080fd5b506105c161152b565b604051808215151515815260200191505060405180910390f35b3480156105e757600080fd5b5061061c600480360381019080803573ffffffffffffffffffffffffffffffffffffffff169060200190929190505050611552565b005b34801561062a57600080fd5b506106336116a7565b604051808273ffffffffffffffffffffffffffffffffffffffff1673ffffffffffffffffffffffffffffffffffffffff16815260200191505060405180910390f35b34801561068157600080fd5b5061068a6116cd565b604051808273ffffffffffffffffffffffffffffffffffffffff1673ffffffffffffffffffffffffffffffffffffffff16815260200191505060405180910390f35b60008060008060008573ffffffffffffffffffffffffffffffffffffffff16141515156106f857600080fd5b600b60008673ffffffffffffffffffffffffffffffffffffffff1673ffffffffffffffffffffffffffffffffffffffff16815260200190815260200160002060009054906101000a900460ff16151561075057600080fd5b6107586116f3565b151561076357600080fd5b34935061077d60085460015461174890919063ffffffff16565b92508284111561078b578293505b61079e843461174890919063ffffffff16565b91506107a984611761565b6000821115610848578473ffffffffffffffffffffffffffffffffffffffff166108fc839081150290604051600060405180830381858888f193505050501580156107f8573d6000803e3d6000fd5b508473ffffffffffffffffffffffffffffffffffffffff167f50ea9274879b4e2a584129ff0e7d656cf15144ef80e8935d4cf890390f8f1580836040518082815260200191505060405180910390a25b6108518461183a565b9050610868846008546118d390919063ffffffff16565b6008819055506108c084600c60008873ffffffffffffffffffffffffffffffffffffffff1673ffffffffffffffffffffffffffffffffffffffff168152602001908152602001600020546118d390919063ffffffff16565b600c60008773ffffffffffffffffffffffffffffffffffffffff1673ffffffffffffffffffffffffffffffffffffffff168152602001908152602001600020819055508473ffffffffffffffffffffffffffffffffffffffff167fcd60aa75dea3072fbc07ae6d7d856b5dc5f4eee88854f5b4abf7b680ef8bc50f8583604051808381526020018281526020019250505060405180910390a2600960009054906101000a900473ffffffffffffffffffffffffffffffffffffffff1673ffffffffffffffffffffffffffffffffffffffff1663a9059cbb86836040518363ffffffff167c0100000000000000000000000000000000000000000000000000000000028152600401808373ffffffffffffffffffffffffffffffffffffffff1673ffffffffffffffffffffffffffffffffffffffff16815260200182815260200192505050602060405180830381600087803b158015610a1e57600080fd5b505af1158015610a32573d6000803e3d6000fd5b505050506040513d6020811015610a4857600080fd5b8101908080519060200190929190505050505050505050565b600481815481101515610a7057fe5b906000526020600020016000915090505481565b60055481565b60015481565b6000600b60008373ffffffffffffffffffffffffffffffffffffffff1673ffffffffffffffffffffffffffffffffffffffff16815260200190815260200160002060009054906101000a900460ff169050919050565b60025481565b60085481565b6000809054906101000a900473ffffffffffffffffffffffffffffffffffffffff1673ffffffffffffffffffffffffffffffffffffffff163373ffffffffffffffffffffffffffffffffffffffff16141515610b4d57600080fd5b600760009054906101000a900460ff16151515610b6957600080fd5b610b7161152b565b1515610b7c57600080fd5b6001600760006101000a81548160ff0219169083151502179055507f6823b073d48d6e3a7d385eeb601452d680e74bb46afe3255a7d778f3a9b1768160405160405180910390a1610bcb610ebd565b15610e0757600a60009054906101000a900473ffffffffffffffffffffffffffffffffffffffff1673ffffffffffffffffffffffffffffffffffffffff166343d726d66040518163ffffffff167c0100000000000000000000000000000000000000000000000000000000028152600401600060405180830381600087803b158015610c5657600080fd5b505af1158015610c6a573d6000803e3d6000fd5b50505050600960009054906101000a900473ffffffffffffffffffffffffffffffffffffffff1673ffffffffffffffffffffffffffffffffffffffff16633f4ba83a6040518163ffffffff167c0100000000000000000000000000000000000000000000000000000000028152600401600060405180830381600087803b158015610cf457600080fd5b505af1158015610d08573d6000803e3d6000fd5b50505050600960009054906101000a900473ffffffffffffffffffffffffffffffffffffffff1673ffffffffffffffffffffffffffffffffffffffff1663f2fde38b6000809054906101000a900473ffffffffffffffffffffffffffffffffffffffff166040518263ffffffff167c0100000000000000000000000000000000000000000000000000000000028152600401808273ffffffffffffffffffffffffffffffffffffffff1673ffffffffffffffffffffffffffffffffffffffff168152602001915050600060405180830381600087803b158015610dea57600080fd5b505af1158015610dfe573d6000803e3d6000fd5b50505050610ea6565b600a60009054906101000a900473ffffffffffffffffffffffffffffffffffffffff1673ffffffffffffffffffffffffffffffffffffffff16638c52dc416040518163ffffffff167c0100000000000000000000000000000000000000000000000000000000028152600401600060405180830381600087803b158015610e8d57600080fd5b505af1158015610ea1573d6000803e3d6000fd5b505050505b565b60006001546008541015905090565b60065481565b60006002546008541015905090565b600760009054906101000a900460ff1681565b6000809054906101000a900473ffffffffffffffffffffffffffffffffffffffff1681565b600b6020528060005260406000206000915054906101000a900460ff1681565b6000809054906101000a900473ffffffffffffffffffffffffffffffffffffffff1673ffffffffffffffffffffffffffffffffffffffff163373ffffffffffffffffffffffffffffffffffffffff16141515610f7f57600080fd5b6000600383815481101515610f9057fe5b9060005260206000200154111515610fa757600080fd5b80600383815481101515610fb757fe5b90600052602060002001819055505050565b6000806000809054906101000a900473ffffffffffffffffffffffffffffffffffffffff1673ffffffffffffffffffffffffffffffffffffffff163373ffffffffffffffffffffffffffffffffffffffff1614151561102757600080fd5b600091505b835182101561110557838281518110151561104357fe5b90602001906020020151905082600b60008373ffffffffffffffffffffffffffffffffffffffff1673ffffffffffffffffffffffffffffffffffffffff16815260200190815260200160002060006101000a81548160ff0219169083151502179055508073ffffffffffffffffffffffffffffffffffffffff167fe79695dad1622e5cfb085702e2abebcb33fd471154ab1504f4c883df61e3e53b84604051808215151515815260200191505060405180910390a2818060010192505061102c565b50505050565b600060149054906101000a900460ff1615151561112757600080fd5b6001600060146101000a81548160ff021916908315150217905550600760009054906101000a900460ff16151561115d57600080fd5b611165610ebd565b15151561117157600080fd5b600a60009054906101000a900473ffffffffffffffffffffffffffffffffffffffff1673ffffffffffffffffffffffffffffffffffffffff1663fa89401a336040518263ffffffff167c0100000000000000000000000000000000000000000000000000000000028152600401808273ffffffffffffffffffffffffffffffffffffffff1673ffffffffffffffffffffffffffffffffffffffff168152602001915050600060405180830381600087803b15801561122e57600080fd5b505af1158015611242573d6000803e3d6000fd5b5050505060008060146101000a81548160ff021916908315150217905550565b600a800a81565b60008060009054906101000a900473ffffffffffffffffffffffffffffffffffffffff1673ffffffffffffffffffffffffffffffffffffffff163373ffffffffffffffffffffffffffffffffffffffff161415156112c657600080fd5b6112ce6118ef565b600554111515156112de57600080fd5b600960009054906101000a900473ffffffffffffffffffffffffffffffffffffffff1673ffffffffffffffffffffffffffffffffffffffff166370a08231306040518263ffffffff167c0100000000000000000000000000000000000000000000000000000000028152600401808273ffffffffffffffffffffffffffffffffffffffff1673ffffffffffffffffffffffffffffffffffffffff168152602001915050602060405180830381600087803b15801561139b57600080fd5b505af11580156113af573d6000803e3d6000fd5b505050506040513d60208110156113c557600080fd5b8101908080519060200190929190505050905060008111156114ed57600960009054906101000a900473ffffffffffffffffffffffffffffffffffffffff1673ffffffffffffffffffffffffffffffffffffffff1663a9059cbb33836040518363ffffffff167c0100000000000000000000000000000000000000000000000000000000028152600401808373ffffffffffffffffffffffffffffffffffffffff1673ffffffffffffffffffffffffffffffffffffffff16815260200182815260200192505050602060405180830381600087803b1580156114a657600080fd5b505af11580156114ba573d6000803e3d6000fd5b505050506040513d60208110156114d057600080fd5b810190808051906020019092919050505015156114ec57600080fd5b5b50565b6003818154811015156114ff57fe5b906000526020600020016000915090505481565b600c6020528060005260406000206000915090505481565b6000806005546115396118ef565b119050808061154c575061154b610ea8565b5b91505090565b6000809054906101000a900473ffffffffffffffffffffffffffffffffffffffff1673ffffffffffffffffffffffffffffffffffffffff163373ffffffffffffffffffffffffffffffffffffffff161415156115ad57600080fd5b600073ffffffffffffffffffffffffffffffffffffffff168173ffffffffffffffffffffffffffffffffffffffff16141515156115e957600080fd5b8073ffffffffffffffffffffffffffffffffffffffff166000809054906101000a900473ffffffffffffffffffffffffffffffffffffffff1673ffffffffffffffffffffffffffffffffffffffff167f8be0079c531659141344cd1fd0a4f28419497f9722a3daafe3b4186f6b6457e060405160405180910390a3806000806101000a81548173ffffffffffffffffffffffffffffffffffffffff021916908373ffffffffffffffffffffffffffffffffffffffff16021790555050565b600a60009054906101000a900473ffffffffffffffffffffffffffffffffffffffff1681565b600960009054906101000a900473ffffffffffffffffffffffffffffffffffffffff1681565b6000806000806006546117046118ef565b1015801561171b57506005546117186118ef565b11155b9250600034141591506001546008541090508280156117375750815b80156117405750805b935050505090565b600082821115151561175657fe5b818303905092915050565b600a60009054906101000a900473ffffffffffffffffffffffffffffffffffffffff1673ffffffffffffffffffffffffffffffffffffffff1663f340fa0182336040518363ffffffff167c0100000000000000000000000000000000000000000000000000000000028152600401808273ffffffffffffffffffffffffffffffffffffffff1673ffffffffffffffffffffffffffffffffffffffff1681526020019150506000604051808303818588803b15801561181e57600080fd5b505af1158015611832573d6000803e3d6000fd5b505050505050565b600080600090505b600380549050811115156118cc5760048181548110151561185f57fe5b90600052602060002001546118726118ef565b1115156118c1576118ba600a800a6118ac60038481548110151561189257fe5b9060005260206000200154866118f790919063ffffffff16565b61192f90919063ffffffff16565b91506118cd565b806001019050611842565b5b50919050565b600081830190508281101515156118e657fe5b80905092915050565b600042905090565b60008083141561190a5760009050611929565b818302905081838281151561191b57fe5b0414151561192557fe5b8090505b92915050565b6000818381151561193c57fe5b049050929150505600a165627a7a72305820906b60e2647b262e3a9e546af5a460de8f7a3445df244fd596704f37106dd1a10029608060405234801561001057600080fd5b50604051602080610abb83398101806040528101908080519060200190929190505050336000806101000a81548173ffffffffffffffffffffffffffffffffffffffff021916908373ffffffffffffffffffffffffffffffffffffffff160217905550600073ffffffffffffffffffffffffffffffffffffffff168173ffffffffffffffffffffffffffffffffffffffff16141515156100af57600080fd5b80600260006101000a81548173ffffffffffffffffffffffffffffffffffffffff021916908373ffffffffffffffffffffffffffffffffffffffff1602179055506000600260146101000a81548160ff0219169083600281111561010f57fe5b021790555050610997806101246000396000f300608060405260043610610099576000357c0100000000000000000000000000000000000000000000000000000000900463ffffffff16806343d726d61461009e578063521eb273146100b55780638c52dc411461010c5780638da5cb5b14610123578063c19d93fb1461017a578063cb13cddb146101b3578063f2fde38b1461020a578063f340fa011461024d578063fa89401a14610283575b600080fd5b3480156100aa57600080fd5b506100b36102c6565b005b3480156100c157600080fd5b506100ca610426565b604051808273ffffffffffffffffffffffffffffffffffffffff1673ffffffffffffffffffffffffffffffffffffffff16815260200191505060405180910390f35b34801561011857600080fd5b5061012161044c565b005b34801561012f57600080fd5b5061013861052d565b604051808273ffffffffffffffffffffffffffffffffffffffff1673ffffffffffffffffffffffffffffffffffffffff16815260200191505060405180910390f35b34801561018657600080fd5b5061018f610552565b6040518082600281111561019f57fe5b60ff16815260200191505060405180910390f35b3480156101bf57600080fd5b506101f4600480360381019080803573ffffffffffffffffffffffffffffffffffffffff169060200190929190505050610565565b6040518082815260200191505060405180910390f35b34801561021657600080fd5b5061024b600480360381019080803573ffffffffffffffffffffffffffffffffffffffff16906020019092919050505061057d565b005b610281600480360381019080803573ffffffffffffffffffffffffffffffffffffffff1690602001909291905050506106d2565b005b34801561028f57600080fd5b506102c4600480360381019080803573ffffffffffffffffffffffffffffffffffffffff1690602001909291905050506107f9565b005b6000809054906101000a900473ffffffffffffffffffffffffffffffffffffffff1673ffffffffffffffffffffffffffffffffffffffff163373ffffffffffffffffffffffffffffffffffffffff1614151561032157600080fd5b6000600281111561032e57fe5b600260149054906101000a900460ff16600281111561034957fe5b14151561035557600080fd5b60028060146101000a81548160ff0219169083600281111561037357fe5b02179055507f1cdde67b72a90f19919ac732a437ac2f7a10fc128d28c2a6e525d89ce5cd9d3a60405160405180910390a1600260009054906101000a900473ffffffffffffffffffffffffffffffffffffffff1673ffffffffffffffffffffffffffffffffffffffff166108fc3073ffffffffffffffffffffffffffffffffffffffff16319081150290604051600060405180830381858888f19350505050158015610423573d6000803e3d6000fd5b50565b600260009054906101000a900473ffffffffffffffffffffffffffffffffffffffff1681565b6000809054906101000a900473ffffffffffffffffffffffffffffffffffffffff1673ffffffffffffffffffffffffffffffffffffffff163373ffffffffffffffffffffffffffffffffffffffff161415156104a757600080fd5b600060028111156104b457fe5b600260149054906101000a900460ff1660028111156104cf57fe5b1415156104db57600080fd5b6001600260146101000a81548160ff021916908360028111156104fa57fe5b02179055507f599d8e5a83cffb867d051598c4d70e805d59802d8081c1c7d6dffc5b6aca2b8960405160405180910390a1565b6000809054906101000a900473ffffffffffffffffffffffffffffffffffffffff1681565b600260149054906101000a900460ff1681565b60016020528060005260406000206000915090505481565b6000809054906101000a900473ffffffffffffffffffffffffffffffffffffffff1673ffffffffffffffffffffffffffffffffffffffff163373ffffffffffffffffffffffffffffffffffffffff161415156105d857600080fd5b600073ffffffffffffffffffffffffffffffffffffffff168173ffffffffffffffffffffffffffffffffffffffff161415151561061457600080fd5b8073ffffffffffffffffffffffffffffffffffffffff166000809054906101000a900473ffffffffffffffffffffffffffffffffffffffff1673ffffffffffffffffffffffffffffffffffffffff167f8be0079c531659141344cd1fd0a4f28419497f9722a3daafe3b4186f6b6457e060405160405180910390a3806000806101000a81548173ffffffffffffffffffffffffffffffffffffffff021916908373ffffffffffffffffffffffffffffffffffffffff16021790555050565b6000809054906101000a900473ffffffffffffffffffffffffffffffffffffffff1673ffffffffffffffffffffffffffffffffffffffff163373ffffffffffffffffffffffffffffffffffffffff1614151561072d57600080fd5b6000600281111561073a57fe5b600260149054906101000a900460ff16600281111561075557fe5b14151561076157600080fd5b6107b334600160008473ffffffffffffffffffffffffffffffffffffffff1673ffffffffffffffffffffffffffffffffffffffff1681526020019081526020016000205461094f90919063ffffffff16565b600160008373ffffffffffffffffffffffffffffffffffffffff1673ffffffffffffffffffffffffffffffffffffffff1681526020019081526020016000208190555050565b60006001600281111561080857fe5b600260149054906101000a900460ff16600281111561082357fe5b14151561082f57600080fd5b600160008373ffffffffffffffffffffffffffffffffffffffff1673ffffffffffffffffffffffffffffffffffffffff1681526020019081526020016000205490506000600160008473ffffffffffffffffffffffffffffffffffffffff1673ffffffffffffffffffffffffffffffffffffffff168152602001908152602001600020819055508173ffffffffffffffffffffffffffffffffffffffff166108fc829081150290604051600060405180830381858888f193505050501580156108fc573d6000803e3d6000fd5b508173ffffffffffffffffffffffffffffffffffffffff167fd7dee2702d63ad89917b6a4da9981c90c4d24f8c2bdfd64c604ecae57d8d0651826040518082815260200191505060405180910390a25050565b6000818301905082811015151561096257fe5b809050929150505600a165627a7a72305820aa0230b328f4d2e7ac6dbb9ed29a24500643382e02f26897de0ee988a7777df60029",
  "source": "pragma solidity ^0.4.21;\n\nimport \"./Token.sol\";\nimport \"openzeppelin-solidity/contracts/math/SafeMath.sol\";\nimport \"openzeppelin-solidity/contracts/ReentrancyGuard.sol\";\nimport \"openzeppelin-solidity/contracts/ownership/Ownable.sol\";\nimport \"openzeppelin-solidity/contracts/crowdsale/distribution/utils/RefundVault.sol\";\n\n/**\n * @title SampleCrowdsale\n * @dev SampleCrowdsale is a base contract for managing a token crowdsale.\n * Crowdsales have a start and end timestamps, where investors can make\n * token purchases and the crowdsale will assign them tokens based\n * on a token per ETH rate. Based on parameters passed at constructor, this contract\n * has 2 different behaviors. Funds collected are forwarded to a vault as they arrive. \n */\ncontract TieredCrowdsale is Ownable, ReentrancyGuard {\n    using SafeMath for uint256;\n\n    uint256 public cap;\n    uint256 public goal;\n\n    uint256[] public rates;\n    uint256[] public tiersDuration;\n\n    uint256 public constant WEI_TO_UNITS = 10**uint256(10);\n\n    uint256 public endTime;\n    uint256 public startTime;\n\n    bool public isFinalized;\n    uint256 public weiRaised;\n\n    Token public token;\n    RefundVault public vault;\n\n    mapping(address => bool) public whitelist;\n    mapping(address => uint256) public contribution;\n    \n    event WhitelistUpdate(address indexed purchaser, bool status);\n    event TokenPurchase(address indexed beneficiary, uint256 value, uint256 amount);\n    event TokenRefund(address indexed refundee, uint256 amount);\n\n    event Finalized();\n    \n\n    constructor(\n        address _token, \n        address _wallet,\n        uint256 _startTime,\n        uint256 _endTime,\n        uint256[] _rates,\n        uint256[] _tiersDuration,\n        uint256 _cap,\n        uint256 _goal\n    ) public {\n        require(_startTime >= getBlockTimestamp());\n        require(_rates.length == _tiersDuration.length);\n        require(_endTime >= _startTime);\n        require(_wallet != 0x0);\n        require(_goal > 0);\n        require(_cap > 0);\n\n        vault = new RefundVault(_wallet);\n        token = Token(_token);\n        startTime = _startTime;\n        endTime = _endTime;\n        rates = _rates;\n        tiersDuration = _tiersDuration;\n        goal = _goal;\n        cap = _cap;\n    }\n\n    // fallback function can be used to buy tokens\n    function () external payable {\n        buyTokens(msg.sender);\n    }\n\n    // low level function to buy tokens\n    function buyTokens(address beneficiary) internal {\n        require(beneficiary != 0x0);\n        require(whitelist[beneficiary]);\n        require(validPurchase());\n\n        // derive amount in wei to buy \n        uint256 weiAmount = msg.value;\n\n        uint256 remainingToFund = cap.sub(weiRaised);\n\n        // check if there is enough funds \n        if (weiAmount > remainingToFund) {\n            weiAmount = remainingToFund;\n        }\n\n        uint256 weiToReturn = msg.value.sub(weiAmount);\n\n        // forward funds to the vault \n        forwardFunds(weiAmount);\n\n        // refund if the contribution exceed the cap\n        if (weiToReturn > 0) {\n            beneficiary.transfer(weiToReturn);\n            emit TokenRefund(beneficiary, weiToReturn);\n        }\n\n        // derive how many tokens\n        uint256 tokens = getTokens(weiAmount);\n\n        // update the state of the sale\n        weiRaised = weiRaised.add(weiAmount);\n        contribution[beneficiary] = contribution[beneficiary].add(weiAmount);\n     \n        emit TokenPurchase(beneficiary, weiAmount, tokens);\n\n        // transfer tokens to investor\n        token.transfer(beneficiary, tokens); \n    }\n\n    // calculate amount of token (+ extra bonus) to be sent to purchaser\n    function getTokens(uint256 amount) internal constant returns (uint256) {\n        uint256 i = 0;\n\n        while (i <= rates.length) {\n            if (getBlockTimestamp() <= tiersDuration[i]) {\n                return amount.mul(rates[i]).div(WEI_TO_UNITS);\n            }\n\n            ++i;\n        }\n    }\n\n    // contributors can claim refund if the goal is not reached\n    function claimRefund() public nonReentrant {\n        require(isFinalized);\n        require(!goalReached());\n\n        vault.refund(msg.sender);\n    }\n\n    // in case of endTime before the reach of the cap, the owner can claim the unsold tokens\n    function claimUnsold() public onlyOwner {\n        require(endTime <= getBlockTimestamp());\n\n        uint256 unsold = token.balanceOf(this);\n\n        if (unsold > 0) {\n            require(token.transfer(msg.sender, unsold));\n        }\n    }\n\n    // add/remove to whitelist array of addresses based on boolean status\n    function updateWhitelist(address[] addresses, bool status) public onlyOwner {\n        for (uint256 i = 0; i < addresses.length; i++) {\n            address contributorAddress = addresses[i];\n            whitelist[contributorAddress] = status;\n            emit WhitelistUpdate(contributorAddress, status);\n        }\n    }\n\n    // only owner can manually finalize the sale\n    function finalize() public onlyOwner {\n        require(!isFinalized);\n        require(hasEnded());\n\n        // update the sate of the sale\n        isFinalized = true;\n\n        emit Finalized();\n\n        if (goalReached()) {\n            // close the vault\n            vault.close();\n            // unpause the token \n            token.unpause();\n            // give ownership back to deployer\n            token.transferOwnership(owner);\n        } else {\n            // else enable refunds\n            vault.enableRefunds();\n        }\n    }\n\n    // only owner can change the conversion rate\n    function changeRate(uint256 index, uint256 _rate) public onlyOwner {\n        require(rates[index] > 0);\n\n        rates[index] = _rate;\n    }\n\n    // send ether to the fund collection wallet, the vault in this case\n    function forwardFunds(uint256 weiAmount) internal {\n        vault.deposit.value(weiAmount)(msg.sender);\n    }\n\n    // @return true if crowdsale event has ended or cap reached\n    function hasEnded() public constant returns (bool) {\n        bool outOfTime = getBlockTimestamp() > endTime;\n\n        return outOfTime || capReached();\n    }\n\n    function capReached() public constant returns (bool) {\n        return weiRaised >= cap;\n    }\n\n    function goalReached() public constant returns (bool) {\n        return weiRaised >= goal;\n    }\n\n    function isWhitelisted(address contributor) public constant returns (bool) {\n        return whitelist[contributor];\n    }\n\n    // @return true if the purchaser is allowed to buy tokens\n    function validPurchase() internal constant returns (bool) {\n        bool withinPeriod = getBlockTimestamp() >= startTime && getBlockTimestamp() <= endTime;\n        bool nonZeroPurchase = msg.value != 0;\n        bool capNotReached = weiRaised < cap;\n\n        return withinPeriod && nonZeroPurchase && capNotReached;\n    }\n\n    function getBlockTimestamp() internal constant returns (uint256) {\n        return block.timestamp;\n    }\n}",
  "sourcePath": "/Users/tiero/projects/vulpem/token-sale-smart-contract/contracts/TieredCrowdsale.sol",
  "compiler": {
    "name": "solc",
    "version": "0.4.23+commit.124ca40d.Emscripten.clang"
  },
  "schemaVersion": "2.0.0",
  "updatedAt": "2018-04-28T12:19:52.441Z"
}